:020000040800F2
:100000003016002099010008DD300008292500087D
:10001000D9300008F90A0008D139000800000000B2
:1000200000000000000000000000000001010008C6
:10003000F10E000800000000450100084D320008E4
:10004000B3010008B3010008B3010008B3010008C0
:10005000B3010008B3010008B3010008B3010008B0
:10006000B3010008B3010008B3010008B3010008A0
:10007000B3010008B3010008B3010008B301000890
:10008000B3010008B3010008B3010008B301000880
:10009000B3010008B3010008B3010008B301000870
:1000A000B301000841330008B3010008B3010008A0
:1000B00051330008B3010008B3010008B301000880
:1000C000B3010008B3010008B3010008B301000840
:1000D000B3010008C1390008B3010008B3010008EA
:1000E000B3010008B3010008B3010008DFF80CD029
:1000F00000F0F0FC00480047FD46000830160020E4
:10010000224B19680868B0E8F00F80F30988BFF344
:100110006F8F4FF0000080F311884EF00D0E704786
:100120000000000006480068006880F3088862B696
:1001300061B6BFF34F8FBFF36F8F00DF00BF00BF0B
:1001400008ED00E0EFF30980BFF36F8F0F4B1A68E3
:1001500020E9F00F106008B54FF0500080F31188CF
:10016000BFF34F8FBFF36F8F05F086FD4FF0000098
:1001700080F31188BDE8084019680868B0E8F00FFE
:1001800080F30988BFF36F8F704700BF2C000020F9
:10019000EFF3058070470000064880470648004797
:1001A000FEE7FEE7FEE7FEE7FEE7FEE7FEE7FEE727
:1001B000FEE7FEE7E9320008ED000008202A04DB34
:1001C000203A21FA02F00021704721FA02F3D040D0
:1001D000C2F12002914008431946704740EA0103EA
:1001E0009B0703D009E008C9121F08C0042AFAD2ED
:1001F00003E011F8013B00F8013B521EF9D27047B1
:10020000D2B201E000F8012B491EFBD27047002258
:10021000F6E710B513460A4604461946FFF7F0FF05
:10022000204610BD30B505460020034600E05B1CAB
:10023000934205D2EC5CC85C201A01D1002CF6D1A7
:1002400030BDF0B480EA0102D40F4200B2EB410F9E
:1002500002D20246084611464A0042D0C30DDDB222
:10026000C1F3C752AD1A202D35DAC1F3160141F49E
:10027000000204B15242C5F1200602FA06F12A41F9
:100280001044B3EBD05F23D0C4B1012DA0EBC35019
:1002900009DCF0BC4FF0004202EAC352DBB200F5C9
:1002A000000000F00BBB400000F1807000EBC35079
:1002B000A0F1807040EAD170490009E0490841EAA4
:1002C000C071A0EBC35000F50000400800EBC35024
:1002D000F0BC00F0EABA6142012202EB4101001BCE
:1002E000F6E7F0BC704781F00041AAE780F00040DB
:1002F000A7E780EA010210B502F00043400022D0D7
:100300004A001FD0010E01EB1261C0F35600C2F388
:10031000560240F4000042F40002A0FB0220000458
:100320007F39140400D0401C50EA124001D4400030
:10033000491EC2B20C0604EBD010401C4008802AB3
:1003400002D003E0002010BD20F00100002900DAF7
:100350000020184310BD30B480EA010202F00045CD
:1003600030F0004221F0004013D090B1C30DD40D05
:10037000C2F31601C0F31600E41A41F4000140F480
:1003800000027D34914201D3641C00E04900002C3E
:1003900002DA30BC002070474FF400000023914285
:1003A00001D3891A034340084FEA4101F7D151B103
:1003B000914202D14FF0004105E002D24FF001011D
:1003C00001E06FF0010103EBC450284430BC00F0A1
:1003D0006CBA2DE9FE4F804681EA0300C00F0C463F
:1003E000009021F0004123F00045B8EB0200A94144
:1003F00005D24046214690461C460B46024623F055
:100400000040104347D0270DC7F30A00C3F30A5139
:100410000290401A019040286BDAC3F3130040F4B5
:10042000801B0098924620B10023D2EB030A63EBB5
:100430000B0B01985946C0F14002504600F014FAE7
:1004400006460D4650465946019A00F01CFA10EB3C
:1004500008006141002487EA115284EAE7731A43D5
:1004600040D0009A62B3019A012A4FEA075215DC84
:10047000001B61EB02014FF0004202EA0752CDE996
:100480000042001C41F5801132462B4600F053FA21
:1004900003B0BDE8F08F40462146F9E7001B61EB51
:1004A0000201001C41F5801300185B412018A2F5E1
:1004B000001747EB030140EAD570B6196D4111E012
:1004C0006D084FEA360645EAC0754FEA0752001B31
:1004D00061EB0201001C41F5801149084FEA300030
:1004E0000019514132462B4603B0BDE8F04F00F0F1
:1004F00013BA0098012240000023D0EB020263EB04
:10050000E073009821464FEAE074B8EB000061EB1D
:100510000401E9E783F000435BE781F0004158E71D
:100520002DE9FE4F81EA030404F0004421F000416C
:1005300000944FF0000B23F0004350EA01045ED01A
:1005400052EA03045BD0C3F30A54C1F30A552C44A6
:10055000A4F2F3340194A0FB0254C1F3130141F45B
:100560008011C3F3130343F4801301FB024400FB27
:10057000034E840A970A44EA815447EA8357A4FB4E
:10058000076802958D0A05FB07854FEA932C04FB4B
:100590000C542705029D4FEA065847EA1637B5EB7B
:1005A00008056EEB070C870E920E47EA811742EAA8
:1005B0008312A7FB0201B6EB0B0164EB00042B0DC9
:1005C00043EA0C335E1844EB1C50DA465146E7FB15
:1005D0000201C5F313044FEA0B3343EA14534FEA05
:1005E0000432019C43EA0603A4F10C040294009C2B
:1005F000CDE900B400F09FF903B0BDE8F08F002012
:100600000146F9E72DE9F04D81EA030404F0004BBF
:1006100021F0004514464FF0000A23F0004150EA53
:10062000050220D054EA01021DD0C5F30A57024644
:10063000C5F31303C1F31300C1F30A5640F4801548
:1006400043F48013A7EB0608101BD64608F2FD38CA
:1006500073EB050002D308F1010801E092185B4139
:10066000B8F1000F03DA00200146BDE8F08D00204C
:100670004FF48011064684460EE0171B73EB050706
:1006800005D3121B63EB050306434CEA010C490832
:100690004FEA300092185B4150EA0107EDD152EA6F
:1006A000030012D082EA040083EA0501084305D062
:1006B000101BAB4106D20122002306E000224FF0BE
:1006C000004302E06FF0010253101AEB06004CEBFE
:1006D000085110EB0A0041EB0B01BDE8F04D00F0B2
:1006E0001BB90EB5C10F80EAE0700844CA070021AB
:1006F00040F233438DE80E000A460B4600F01BF92A
:1007000003B000BD0EB540F2334102910021CDE9A6
:1007100000110A460B4600F00EF903B000BD20F0B0
:100720000040C10DC0F3160040F400007F2901DA3B
:1007300000207047962903DCC1F19601C84070473C
:1007400096398840704770B5C1F30A5201F00045F0
:100750000024C1F3130140F2FF3341F480119A42A7
:1007600001DA002070BD40F233439A42A2F23342D4
:1007700003DC5242FFF722FD00E090402C43F1D011
:10078000404270BDC1F30A5210B5C1F3130140F2EB
:10079000FF3341F480119A4201DA002010BD40F28B
:1007A00033439A42A2F2334203DC5242FFF706FD82
:1007B00010BD904010BD00F0004230F000400AD063
:1007C000C10D01F56071C0F3160042EA0151C20883
:1007D00040071143704700200146704701F0004375
:1007E00030B421F0004150EA010206D00A0DA2F512
:1007F0006072C1F31301002A02DC30BC0020704794
:10080000440F44EAC104C100E01830BC00EBC25000
:1008100000F04BB8002801DBC0F10040002901DBEB
:10082000C1F1004181427047002801DBC0F1004066
:10083000002901DBC1F100418842704730B50B4609
:10084000014600202022012409E021FA02F59D4200
:1008500005D303FA02F5491B04FA02F52844151ED4
:10086000A2F10102F1DC30BD202A04DB203A00FABB
:1008700002F1002070479140C2F1200320FA03F3F7
:10088000194390407047202A06DBCB17203A41FAE3
:1008900002F043EAE07306E041FA02F3D040C2F10D
:1008A000200291400843194670470029A8BF7047AD
:1008B000401C490008BF20F00100704710B4B0FA96
:1008C00080FC00FA0CF050EA010404BF10BC704731
:1008D00049B1CCF1200421FA04F411FA0CF118BF4B
:1008E000012121430843A3EB0C01CB1D4FEA00611A
:1008F0004FEA102042BF002010BC704700EBC350ED
:1009000010440029A4BF10BC7047401C490008BF18
:1009100020F0010010BC704710B5141E73F10004E4
:1009200008DA401C41F1000192185B411A4301D1E1
:1009300020F0010010BD2DE9F04D92469B4611B10B
:10094000B1FA81F202E0B0FA80F220329046FFF76D
:100950008BFF04460F4640EA0A0041EA0B0153466A
:100960005A46084313D0114653EA010019D0C8F182
:1009700040025046FFF722FC05460E4650465946B7
:100980004246FFF771FF084305D0012004E02046EE
:100990003946BDE8F08D0020054346EAE0762C4359
:1009A00037430A986305E40AA0EB08000022FD0A19
:1009B00044EA47540A3002D500200146E9E7010520
:1009C00010196941DDE9084500196941BDE8F04D9C
:1009D000A2E770B521F0004303430CD0C1F30A55E0
:1009E0000024D5EB040564EB0403D617AD1AB3411C
:1009F00002DB0020014670BD201841EB025170BDA2
:100A00002DE9F04D00231A461B1A8A4103DB002012
:100A10000146BDE8F08DC1F30A52C1F3130141F460
:100A200080154FF0000BD10702D100186D41521E06
:100A30000027044640F2FF11384601EB620A3E46A9
:100A40008046024600204FF48011FFF7B7FBC21921
:100A50007141BB1846EB0100B4EB030C75EB000CC5
:100A600004D3E41A65EB000517460E46241908F175
:100A700001006D4180463428E3DDF91946EB06009C
:100A8000091BA84103D24FF0FF32134601E00022B8
:100A900013461BEB070046EB0A51BDE8F04DFFF78C
:100AA0003BBF000030B5041E71F1000404DB4FF0C1
:100AB0000044404264EB0101141E73F1000405DBA5
:100AC0001C464FF00043524263EB0403994208BFB7
:100AD000904230BD064C074D06E0E06840F001034F
:100AE00094E8070098471034AC42F6D3FFF702FBB6
:100AF000D0630008F063000800BFFEE72DE9F05F57
:100B00001F480068FFF7FEFD04460D461D49D1F859
:100B10005C01FFF750FE80461B4A1C4BFFF700FDAF
:100B2000064622462B46FFF7FBFC8246FFF756FEA1
:100B300017490860174916480068FFF775FE02D28A
:100B400000200F4908600F4890F85101012804D097
:100B500002280DD003280FD105E009480068401C89
:100B60000749086008E0064800680549086003E096
:100B700000200349086000BF00BFBDE8F09F0000EF
:100B800004000020B00300209A9999999999A93FEF
:100B9000080000200000C8420048704708000020FC
:100BA00010B5044602F0FAFA052832D2DFE800F068
:100BB00029030D172000012060703F4860603F4806
:100BC00060610020E062A06232E0012060703C4879
:100BD00060603C4860610020E062A06228E0012083
:100BE0006070002060606061E0623748A0621FE0D2
:100BF00001206070002060606061E0623348A062A4
:100C000016E002206070002060606061E062A06217
:100C10000EE002206070002060602D48A06029482E
:100C2000E0602C48206100206061E062A06200BFAB
:100C300000BF00203CE030B101280ED0022819D0BE
:100C4000032832D122E004F11801626941F8202022
:100C50001831E26A41F8202027E004F118016269A6
:100C600041F82020E16A81F0004204F1300141F8AE
:100C700020201AE0616981F0004204F1180141F876
:100C800020201831E26A41F820200EE0616981F0ED
:100C9000004204F1180141F82020E16A81F000428D
:100CA00004F1300141F8202000BF00BF411CC8B250
:100CB0000428C0DB10BD0000000070420000A0C08E
:100CC000000070C20000A040000020C100002041D0
:100CD0000000C0400000B442F7B5064636B1012E10
:100CE00041D0022E7CD0032E3CD1B4E0794901984A
:100CF000FFF7A7FA07464FF08041FFF7F4FA0446E2
:100D000075490298FFF79DFA07464FF07E51FFF7AD
:100D100098FA054671492046FFF786FD00D86F4CCA
:100D200000212046FFF776FD00D800246B492846B5
:100D3000FFF77AFD00D8694D00212846FFF76AFDCC
:100D400000D800252046FFF7EAFCC7B23946042048
:100D500002F003FA2846FFF7E2FCC7B23946052045
:100D600002F0FBF9B3E05B490198FFF76AFA074626
:100D70005B49FFF7B8FA044657490298FFF761FA52
:100D800007464FF08241FFF75CFA0546534920467B
:100D9000FFF74AFD00D8514C00212046FFF73AFDED
:100DA00000D800244D492846FFF73EFD00D84B4DA2
:100DB00000212846FFF72EFD00D800252046FFF72A
:100DC000AEFCC7B23946062002F0C7F92846FFF745
:100DD000A6FCC7B23946072002F0BFF977E0FFE76B
:100DE0003C490198FFF72DFA07463E49FFF77BFA89
:100DF000044639490298FFF724FA07463A49FFF7B3
:100E000020FA054635492046FFF70EFD00D8334C41
:100E100000212046FFF7FEFC00D800242F49284679
:100E2000FFF702FD00D82D4D00212846FFF7F2FC08
:100E300000D800252046FFF772FCC7B239460820CB
:100E400002F08BF92846FFF76AFCC7B23946092041
:100E500002F083F93BE01F490198FFF7F2F90746DA
:100E60002249FFF740FA04461B490298FFF7E9F9C7
:100E700007464FF08241FFF7E4F90546174920463F
:100E8000FFF7D2FC00D8154C00212046FFF7C2FC2A
:100E900000D8002411492846FFF7C6FC00D80F4DA2
:100EA00000212846FFF7B6FC00D800252046FFF7B2
:100EB00036FCC7B239460A2002F04FF92846FFF740
:100EC0002EFCC7B239460B2002F047F900BF00BF25
:100ED000FEBD00000000B442000087430000344320
:100EE000000080BF0000A0C0000010C10000C0C012
:100EF0007047704770B50446002516E0C5EBC50184
:100F000001EB410104EB810001F03CFCC5EBC501A4
:100F100001EB410104EB810101F1280004F5AC7201
:100F2000111F02F07FFB681CC5B2042DE6DB70BD0B
:100F300070B52048FFF734FE002438E01E48D0F892
:100F40007821C4EBC40000EB40001B4B03EB800096
:100F500000F12801204601F09FFFC4EBC40101EB22
:100F60004101154A02EB810101F1280002F096FAD5
:100F7000104D303555F82430183D55F824200E4DCD
:100F8000D5F86011C4EBC40505EB45050A4E06EB28
:100F9000850002F05AFAC4EBC40000EB4000324670
:100FA00002EB8001204601F0F3FB601CC4B2042C6C
:100FB000C4DB70BD00050020B00300200648FFF729
:100FC00099FF0121044880F8511104E0FFF7B0FFB8
:100FD000012004F0C3FDF9E7B003002010B504467A
:100FE00025480078062811DA234801780078401C4B
:100FF000214A10702148445400784D2806D0002022
:10100000114608701D480021016081801A4800784F
:10101000801E1A49085C4F2821D117480078401ECD
:10102000085C4B281BD114480078022817DD0222E7
:1010300013A11248FFF7F6F888B9002006E00F4A1E
:10104000811C515C0F4A1154411CC8B20228F6DBC6
:101050000020094908700948002101608180064884
:101060000078062806DB00200349087003480021A9
:101070000160818010BD00001900002012000020D6
:101080004D3100001000002070B50446002594F892
:101090002100022803D00420A063012548E0206835
:1010A000006820F00E00216808602068006820F0C9
:1010B0000100216808601F492068884201D1012091
:1010C00026E01C4914312068884201D110201FE01D
:1010D000184928312068884201D1801518E0154947
:1010E0003C312068884201D1801411E0114950310F
:1010F0002068884202D14FF4803009E00D49643104
:101100002068884202D14FF4801001E04FF08070D7
:10111000084908394860012084F8210000BF0020F8
:1011200084F8200000BF606B10B12046616B8847D7
:10113000284670BD0800024070B5044600F0AEF9C4
:1011400006462546681C10B104480078054400BFD7
:1011500000F0A4F9801BA842FAD370BD240000203F
:101160002DE9F8470346002294466EE14FF001084E
:1011700008FA02F4D1F8008008EA0400A0427DD108
:10118000DFF8DCA2D1F80480A8EB0A09D0453AD0F8
:1011900014DCB8F1030F50D009DCB8F1000F31D0E6
:1011A000B8F1010F1CD0B8F1020F49D120E0B8F11D
:1011B000110F18D0B8F1120F42D11EE0B9F5881FF7
:1011C00025D006DCB9F5803F20D0B9F5801F37D196
:1011D0001AE0B9F5001F18D0B9F5041F30D117E097
:1011E000D1F80CC02DE0D1F80C8008F1040C28E0F7
:1011F000D1F80C8008F1080C23E0D1F80C8008F13C
:101200000C0C1EE000BF00BF00BF00BF00BF00BF4E
:10121000D1F80880B8F1000F02D14FF0040C0BE0B8
:10122000D1F80880B8F1010F03D14FF0080C1C6110
:1012300002E04FF0080C5C6103E04FF0000C00E0AE
:1012400000BF00BFFF2801D8984601E003F1040861
:101250004646FF2802D84FEA820803E0A2F10808B8
:101260004FEA88084746D6F800804FF00F0909FA80
:1012700007F928EA09080CFA07F900E088E048EACB
:101280000908C6F80080D1F8048008F08058B8F149
:10129000805F7DD100BFDFF8CC81D8F8188048F09E
:1012A0000108DFF8C091C9F81880C846D8F818803E
:1012B00008F00108CDF8008000BF00BF4FEAB93840
:1012C0004FEA920958F829504FEA82784FEA187984
:1012D0004FF00F0808FA09F825EA0805DFF88881B9
:1012E000434502D14FF0000816E0DFF88081434506
:1012F00002D14FF001080FE0DFF87481434502D1BD
:101300004FF0020808E0DFF86C81434502D14FF04E
:10131000030801E04FF004084FEA82794FEA197997
:1013200008FA09F848EA0505DFF84C814FEA920906
:1013300048F82950D1F8048008F48038B8F5803F87
:101340000AD1DFF83881D8F8008048EA0008DFF8D1
:101350002C91C9F8008009E0DFF82081D8F80080DE
:1013600028EA0008DFF81491C9F80080D1F8048059
:1013700008F40038B8F5003F10D1DFF8008108F11B
:101380000408D8F8008048EA0008DFF8F09000E090
:101390005AE009F10409C9F800800DE0DFF8DC80AB
:1013A00008F10408D8F8008028EA0008DFF8CC909B
:1013B00009F10409C9F80080D1F8048008F4801804
:1013C000B8F5801F0ED1DFF8B48008F10808D8F80E
:1013D000008048EA0008DFF8A49009F10809C9F87C
:1013E00000800DE0DFF8948008F10808D8F800804C
:1013F00028EA0008DFF8849009F10809C9F800809C
:10140000D1F8048008F40018B8F5001F0ED1DFF8F9
:101410006C8008F10C08D8F8008048EA0008DFF872
:101420005C9009F10C09C9F800800DE0DFF84C80F0
:1014300008F10C08D8F8008028EA0008DFF83C9092
:1014400009F10C09C9F80080521CD1F8008028FA73
:1014500002F8B8F1000F7FF489AEBDE8F88700000C
:10146000000011100010024000080140000C014073
:101470000010014000140140080001400004014038
:10148000C2680A400AB1416100E0016170470AB1D7
:10149000016101E00B04036170470000014800682E
:1014A000704700001C0000200348006803490978C9
:1014B00008440149086070471C00002024000020F7
:1014C00010B50848006840F0100006490860032085
:1014D00000F0C6F8002000F007F800F049F80020FE
:1014E00010BD00000020024070B588B00446002501
:1014F000002600222146192000F074F8192000F07F
:1015000061F800BF1648806940F4006014498861A2
:101510000846806900F40060019000BF00BF02A986
:1015200003A800F077F900F0ADF905460D48B5FBCA
:10153000F0F0461E0C480D49086040F2E7310B48B8
:10154000C160466000210161816000F053FC20B958
:10155000064800F089FC08B070BD0120FBE70000E0
:101560000010024040420F00002C01407003002098
:1015700008B500BF1148806940F001000F4988613B
:101580000846806900F00100009000BF00BF00BF66
:101590000846C06940F08050C8610846C06900F044
:1015A0008050009000BF00BF00BF0549486820F090
:1015B000E06040F00070486000BF08BD00100240CD
:1015C0000000014001460846002809DB00F01F0327
:1015D00001229A4043099B0003F1E023C3F8002154
:1015E00000BF70472DE9F05F80460D461646002784
:1015F00002F014FA074639462A46334601F007003E
:10160000C0F1070ABAF1040F02D94FF0040A01E051
:10161000C0F1070AD14600F1040ABAF1070F02D25D
:101620004FF0000A01E0A0F1030AD4464FF0010A8E
:101630000AFA09FAAAF1010A0AEA020A0AFA0CFAF3
:101640004FF0010B0BFA0CFBABF1010B0BEA030B98
:101650004AEA0B042146404602F0E8F9BDE8F09F53
:1016600000BF00F00702064B19684FF6FF03194050
:10167000044B0B4343EA0221014B196000BF704742
:101680000CED00E00000FA0570B504460D460CB9FB
:10169000012070BD5A48006800F00700A8420ED231
:1016A0005748006820F0070028435549086008465D
:1016B000006800F00700A84201D00120E9E7207887
:1016C00000F0020002281DD1207800F00400042858
:1016D00005D14C48406840F4E0604A4948602078B1
:1016E00000F00800082805D14648406840F46050E2
:1016F000444948604348406820F0F000A16808432E
:1017000040494860207800F0010078B36068012803
:1017100006D13C48006800F4003090B90120B8E7D9
:101720006068022806D13748006800F0007040B9B0
:101730000120AEE73348006800F0020008B901203C
:10174000A7E73048406820F00300616808432D494E
:101750004860FFF7A3FE064609E0FFF79FFE801BE7
:1017600041F28831884202D9032092E707E02548F8
:10177000406800F00C006168B0EB810FEDD12048AB
:10178000006800F00700A8420ED91D48006820F04C
:10179000070028431A4908600846006800F007005F
:1017A000A84201D0012074E7207800F0040004284A
:1017B00007D11448406820F4E060E168084311490B
:1017C0004860207800F00800082808D10D484068DB
:1017D00020F46050216940EAC1000A49486000F0E5
:1017E00061F808494968C1F30311074A515CC840D0
:1017F0000649086006480068FFF776FE002048E7C3
:1018000000200240001002409C61000828000020D7
:10181000200000200F2202600D4A526802F00302ED
:1018200042600B4A526802F0F0028260084A526835
:1018300002F4E062C260064A526802F46052D208C2
:101840000261044A126802F007020A607047000051
:10185000001002400020024001480068704700006C
:101860002800002000B5FFF7F7FF04494968C1F3DD
:101870000221034A515CC84000BD00000010024034
:10188000AC61000800B5FFF7E7FF04494968C1F300
:10189000C221034A515CC84000BD00000010024054
:1018A000AC610008F0B585B00FF26C0C9CE8E0105C
:1018B00001A8A0E8E0101CA52D68009500210022D9
:1018C000002300240020194D696801F00C05F5B1D2
:1018D000042D02D0082D19D101E0154819E001AD01
:1018E000C1F38346AC5D01F4803555B10F4D6D6891
:1018F000C5F340451DF805200D4D6543B5FBF2F3DA
:1019000002E00C4D04FB05F3184602E000BF084856
:1019100000BF00BF05B0F0BD0203040506070809BB
:101920000A0B0C0D0E0F10100102000000100240F7
:1019300000127A0000093D00F8B504460CB90120F8
:10194000F8BD207800F00100002878D0F848406801
:1019500000F00C0004280CD0F548406800F00C00A2
:10196000082811D1F248406800F48030B0F5803F7B
:101970000AD1EF48006800F4003000285FD06068AA
:1019800000285CD10120DBE700BF6068B0F5803F34
:1019900006D1E748006840F48030E549086028E057
:1019A000606858B9E248006820F48030E049086077
:1019B0000846006820F4802008601AE06068B0F5EE
:1019C000A02F0BD1DA48006840F48020D849086085
:1019D0000846006840F4803008600AE0D448006897
:1019E00020F48030D24908600846006820F4802046
:1019F000086000BF606888B1FFF750FD054606E04B
:101A0000FFF74CFD401B642801D9032098E7C84824
:101A1000006800F400300028F2D010E0FFF73EFD2F
:101A2000054606E0FFF73AFD401B642801D9032074
:101A300086E7BF48006800F400300028F2D1207823
:101A400000F00200022857D1B948406800F00C00AD
:101A500050B1B748406800F00C00082818D1B448CD
:101A6000406800F4803098B9B148006800F0020086
:101A700020B12069012801D0012061E7AC4800684D
:101A800020F0F800616940EAC100A949086033E02C
:101A90002069E8B10120A7490860FFF7FFFC05466F
:101AA00006E0FFF7FBFC401B022801D9032047E7B3
:101AB0009F48006800F002000028F2D09C480068AF
:101AC00020F0F800616940EAC1009949086013E01C
:101AD000002098490860FFF7E1FC054606E0FFF7A3
:101AE000DDFC401B022801D9032029E7904800684B
:101AF00000F002000028F2D1207800F00800082849
:101B00002DD1A069B8B101208B490860FFF7C6FC50
:101B1000054606E0FFF7C2FC401B022801D903205E
:101B20000EE78348406A00F002000028F2D001204E
:101B300001F020FB13E000207F490860FFF7AEFCB6
:101B4000054606E0FFF7AAFC401B022801D9032046
:101B5000F6E67748406A00F002000028F2D12078CB
:101B600000F00400042873D100277148C06900F018
:101B7000805070B900BF6E48C06940F080506C4919
:101B8000C8610846C06900F08050009000BF00BFE7
:101B900001276A48006800F48070B0B9674800689F
:101BA00040F4807065490860FFF778FC054606E060
:101BB000FFF774FC401B642801D90320C0E65F488E
:101BC000006800F480700028F2D000BFE0680128AF
:101BD00006D15748006A40F001005549086227E0E5
:101BE000E06858B95248006A20F001005049086284
:101BF0000846006A20F00400086219E0E068052841
:101C00000BD14B48006A40F004004949086208467D
:101C1000006A40F0010008620AE04548006A20F0CE
:101C20000100434908620846006A20F00400086287
:101C300000BFE068A0B1FFF731FC054609E0FFF7FF
:101C40002DFC401B41F28831884202D9032077E6FF
:101C500022E03748006A00F002000028EFD012E0CE
:101C6000FFF71CFC054608E0FFF718FC401B41F29B
:101C70008831884201D9032062E62D48006A00F0CD
:101C800002000028F0D1012F05D12948C06920F0B9
:101C900080502749C86100BFE069C8B32448406844
:101CA00000F00C00082860D0E069022848D100202C
:101CB00020490866FFF7F2FB054606E0FFF7EEFB5A
:101CC000401B022801D903203AE61948006800F0B9
:101CD00000700028F2D1206AB0F5803F07D1144887
:101CE000406820F40030A168084311494860D4E9F5
:101CF000080108430E49496821F4741108430C494E
:101D0000486001200B490866FFF7C8FB054607E05D
:101D10003DE0FFF7C3FB401B022801D903200FE67B
:101D20000348006800F000700028F2D02FE00000A7
:101D30000010024000004242800442420070004015
:101D4000002014490866FFF7A9FB054606E0FFF7E7
:101D5000A5FB401B022801D90320F1E50E480068CD
:101D600000F000700028F2D111E0E069012800D1F4
:101D7000E6E50948466806F48031206A814204D1CC
:101D800006F47011606A814201D00120D8E500207C
:101D9000D6E5000000004242001002407047704744
:101DA00010B5024600BF92F83C00012801D1022084
:101DB00010BD012082F83C0000BF022082F83D00E7
:101DC000106843681068846823F070030868034350
:101DD00024F08004486804431068436010688460FD
:101DE000012082F83D0000BF002082F83C0000BFC7
:101DF00000BFDDE710B504460CB9012010BD94F812
:101E00003D0028B9002084F83C00204600F00CF882
:101E1000022084F83D00211D206801F0A1FA012074
:101E200084F83D000020E9E738B504462068B0F1A9
:101E3000804F15D100BF0B48C06940F0010009492F
:101E4000C8610846C06900F00100009000BF00BFF3
:101E5000002201211C20FFF7C5FB1C20FFF7B2FB6D
:101E600038BD00000010024001460868C06840F01C
:101E700001000B68D8600868806800F00702062A35
:101E800005D00868006840F001000B681860002069
:101E900070472DE9F04104460D4600BF94F83C0020
:101EA000012802D10220BDE8F081012084F83C0025
:101EB00000BF022084F83D002068866826F077067F
:101EC00026F47F46206886602868502833D00CDCD2
:101ED000202850D004DC00284BD0102851D149E0F4
:101EE000302849D040284CD139E060282DD07028C6
:101EF00007D0B0F5805F03D0B0F5005F41D10DE0B1
:101F000040E0D5E902136A68206801F063FA2068AE
:101F1000866846F077062068866033E0D5E90213CC
:101F20006A68206801F056FA2068806840F48040B2
:101F30002168886026E0EA686968206801F05EFA36
:101F40005021206801F051FA1CE0EA6869682068B5
:101F500001F067FA6021206801F047FA12E0EA68B0
:101F60006968206801F04AFA4021206801F03DFAD2
:101F700008E000BF00BF00BF2968206801F035FA03
:101F800000E000BF00BF012084F83D0000BF00203A
:101F900084F83C0000BF00BF85E7704710B50446D9
:101FA00020680069C0F34000D8B12068C068C0F361
:101FB0004000B0B16FF00200216808610120207775
:101FC0002068806900F0030018B12046FFF7E5FFA4
:101FD00005E0204600F0ADF8204600F0ABF8002008
:101FE000207720680069C0F38000D8B12068C068FD
:101FF000C0F38000B0B16FF00400216808610220D6
:1020000020772068806900F4407018B12046FFF7FF
:10201000C4FF05E0204600F08CF8204600F08AF866
:102020000020207720680069C0F3C000D8B1206884
:10203000C068C0F3C000B0B16FF00800216808614B
:10204000042020772068C06900F0030018B1204602
:10205000FFF7A3FF05E0204600F06BF8204600F0F4
:1020600069F80020207720680069C0F30010D8B11B
:102070002068C068C0F30010B0B16FF01000216894
:102080000861082020772068C06900F4407018B10A
:102090002046FFF782FF05E0204600F04AF8204680
:1020A00000F048F8002020772068006900F0010067
:1020B00058B12068C06800F0010030B16FF0010035
:1020C00021680861204600F037F820680069C0F3F5
:1020D000C01058B12068C068C0F3C01030B16FF0B4
:1020E0008000216808612046FFF758FE20680069DB
:1020F000C0F3801058B12068C068C0F3801030B1C0
:102100006FF0400021680861204600F027F8206841
:102110000069C0F3401058B12068C068C0F3401097
:1021200030B16FF02000216808612046FFF737FECC
:1021300010BD70477047000010B50446054920687F
:10214000884201D1FFF7B0F90348844201D1FEF77C
:10215000D5FC10BD002C0140F002002070477047F4
:102160002DE9F0470446206805682068C6682068A5
:1021700047694FF00008C14605F00F08B8F1000F9D
:102180000AD105F0200038B106F0200020B1204629
:1021900001F088FABDE8F087B8F1000F6DD007F0C4
:1021A000010018B906F49070002866D005F001000F
:1021B00030B106F4807018B1E06B40F00100E063CC
:1021C00005F0040030B107F0010018B1E06B40F0F9
:1021D0000200E06305F0020030B107F0010018B121
:1021E000E06B40F00400E06305F0080030B107F058
:1021F000010018B1E06B40F00800E063E06B68B3E9
:1022000005F0200028B106F0200010B1204601F0B2
:1022100049FA20684069C0F38019E06B00F00800BB
:1022200010B9B9F1000F22D0204601F01BFA206846
:10223000406900F04000B0B12068406920F04000E3
:1022400021684861606B50B11748616B4863606BEF
:10225000FEF71AFF10B1606B416B88470CE0204617
:10226000FFF77DFF08E02046FFF779FF04E02046F6
:10227000FFF775FF0020E0638CE705F0800030B1C8
:1022800006F0800018B1204601F030FB82E705F02F
:10229000400030B106F0400018B1204601F0F2F9DC
:1022A00078E700BF76E700005136000810B5044615
:1022B0000CB9012010BDA06900B100E000BF94F886
:1022C000390028B9002084F83800204600F028F8AA
:1022D000242084F839002068C06820F40050216868
:1022E000C860204601F032FA2068006920F490406E
:1022F000216808612068406920F02A00216848614F
:102300002068C06840F400502168C8600020E06385
:10231000202084F8390084F83A000020CAE7000041
:1023200010B586B0044600200290039004900590FA
:102330001E492068884236D100BF1D48806940F49C
:1023400080401B4988610846806900F48040019004
:1023500000BF00BF00BF0846806940F004008861EC
:102360000846806900F00400019000BF00BF4815D6
:102370000290022003900320059002A90D48FEF769
:10238000EFFE4FF48060029000200390049002A9B9
:102390000848FEF7E5FE002203212520FFF722F979
:1023A0002520FFF70FF906B010BD000000380140EE
:1023B000001002400008014010B5034693F83A00AF
:1023C00020282FD101B10AB9012010BD00BF93F818
:1023D0003800012801D10220F7E7012083F83800F6
:1023E00000BF99629A85DA850020D863222083F89D
:1023F0003A0000BF002083F8380000BF1868C068AA
:1024000040F480701C68E0601868406940F001008A
:102410001C6860611868C06840F020001C68E060BB
:102420000020D2E70220D0E710B5044606488442D7
:1024300008D106480078FEF7D1FD01220349024881
:10244000FFF7BAFF10BD0000300300201800002085
:102450002DE9F84304460D4616461F464FF0000985
:1024600094F8390020285CD105B116B90120BDE8E7
:10247000F88300BF94F83800012801D10220F6E764
:10248000012084F8380000BF0020E063212084F898
:102490003900FFF703F88146A684E6842BE0E08C40
:1024A000401EE084A068B0F5805F16D14B46002244
:1024B00080212046009701F04DFA08B10320D6E7AD
:1024C000A846B8F80000C0F30800216848602069F9
:1024D00008B9AD1C0FE06D1C0DE04B4600228021B9
:1024E0002046009701F036FA08B10320BFE715F83F
:1024F000010B21684860E08C0028D0D14B460022B7
:1025000040212046009701F025FA08B10320AEE7EC
:10251000202084F8390000BF002084F8380000BF74
:10252000A5E70220A3E7704700BFFEE710B5002033
:102530000E4908600E48006820F470400C4908609D
:102540000846006840F44050086000200949C1F87E
:10255000840102F0CBF801200449086002F0C6F8BB
:1025600000200449C1F8800110BD00008081214293
:10257000040C01400080214210B500200E49086083
:102580000E48006820F470400C4908600846006856
:1025900040F44050086001200949C1F8840102F06C
:1025A000A5F801200449086002F0A0F800200449C1
:1025B000C1F8800110BD000080812142040C01405F
:1025C0000080214270B5054600241648006820F4BA
:1025D0007040144908600846006840F400400860F4
:1025E000002614E000201049086002F07FF8012066
:1025F0000E49C1F880016006040E0B487C38006863
:1026000008B1601CC4B202F071F8701CC6B2082E8A
:10261000E8DB15B9FFF7B0FF01E0FFF787FF2046C1
:1026200070BD0000040C01408081214200802142E5
:1026300070B504461348006820F4704011490860E2
:102640000846006840F44050086000200E490860C9
:10265000002514E0E0090C49091D08606006040E1D
:1026600002F044F801200949C1F8800102F03EF867
:1026700000200549086002F039F8681CC5B2082D31
:10268000E8DB70BD040C01408081214200802142C2
:1026900010B50E48006820F470400C4908600846E8
:1026A000006840F440500860012009490860094969
:1026B000C1F8800102F01AF800200549086002F014
:1026C00015F800200349C1F8800110BD040C014039
:1026D000848121420080214210B50E48006820F418
:1026E00070400C4908600846006840F4405008609B
:1026F0000020094908600949C1F8840101F0F6FF8A
:102700000120054908600549C1F8840101F0EEFF88
:1027100010BD0000040C0140808121420080214254
:1027200010B500241448006820F470401249086075
:102730000846006840F40040086001200F49086026
:1027400001F0D4FF01200E49C1F8800101F0CEFF55
:1027500007E0601CC4B2FA2C03DDFFF7BDFF0120C7
:1027600010BD0648803800680028F2D10349091FCF
:10277000086000BFF4E70000040C0140848121429E
:102780000080214210B50446204600F0C3FB10BD76
:1027900003B59DB01D9810B103287DD100E000BFA6
:1027A0001E98406806901E98C06905900699FDF72E
:1027B0009AFD0790FDF7FFFF00224FF08043CDE91F
:1027C000080102F011F8CDE90C011E98006806908E
:1027D0001E98806905900699FDF785FD0790FDF725
:1027E000EAFF00224FF08043CDE9080101F0FCFF31
:1027F000CDE90A01DDE90C23FDF7EBFDCDE90E0182
:1028000003F08AF8CDE91001FDF7E8FF1A90FE48C1
:102810001A99FDF76EFDFD490890FDF712FD09902C
:10282000FDF7C9FF00224FF08043CDE90C011046AF
:10283000F74901F0D9FFCDE908011A98FDF7BBFF70
:1028400000224FF08043CDE9000101F0CDFF0022CE
:102850004FF08043CDE904011046EE4901F0C4FF7A
:10286000CDE90201DDE90423FDF7B3FDCDE9060161
:10287000DDE90823FDF74EFECDE90A01DDE90C2371
:10288000FDF7C0FECDE90E0101F006FDCDE9100116
:10289000FDF7A4FF149000E05FE01E9800680B9025
:1028A0001E9880690A900B99FDF71DFD0C901A99EE
:1028B000FDF751FD0D90FDF77EFFCDE90E0101F012
:1028C000EBFCCDE91001FDF789FF1390DDE9130161
:1028D000FDF709FD12901298FDF76DFFCDE9080193
:1028E00001F03AFE0022CC4BCDE90A01FDF718FEBB
:1028F000CDE90E011E9800680B90FDF75CFFCDE955
:102900000C01DDE90E23FDF764FDCDE91001FDF7B3
:1029100065FF1E9988601298FDF74DFFCDE908010B
:1029200002F0AAFF0022BC4BCDE90A01FDF7F8FD39
:10293000CDE90E011E9840680B90FDF73CFFCDE9F4
:102940000C01DDE90E23FDF744FDCDE91001FDF793
:1029500045FF01461E98C160DAE01E984068069067
:102960001E98406905900699FDF7BDFC0790FDF79C
:1029700022FF00224FF08043CDE9080101F034FF2F
:10298000CDE90C011E98006806901E98006905901C
:102990000699FDF7A8FC0790FDF70DFF00224FF008
:1029A0008043CDE9080101F01FFFCDE90A01DDE90F
:1029B0000C23FDF70EFDCDE90E0102F0ADFFCDE9D0
:1029C0001001FDF70BFF19908F481999FDF791FC45
:1029D0008E490890FDF735FC0990FDF7ECFE0022CA
:1029E0004FF08043CDE90C011046894901F0FCFE0F
:1029F000CDE908011998FDF7DEFE00224FF0804373
:102A0000CDE9000101F0F0FE00224FF08043CDE956
:102A1000040110467F4901F0E7FECDE90201DDE93E
:102A20000423FDF7D6FCCDE90601DDE90823FDF717
:102A300071FDCDE90A01DDE90C23FDF7E3FDCDE9E8
:102A40000E0101F029FCCDE91001FDF7C7FE14903D
:102A50001E9800690B901E9800680A900B99FDF76C
:102A600042FC0C901999FDF776FC0D90FDF7A3FE42
:102A7000CDE90E0101F010FCCDE91001FDF7AEFE2D
:102A80001390DDE91301FDF72EFC12901298FDF76B
:102A900092FECDE9080101F05FFD00225E4BCDE919
:102AA0000A01FDF73DFDCDE90E011E9800680B906F
:102AB000FDF781FECDE90C01DDE90E23FDF72AFDCE
:102AC000CDE91001FDF78AFE1E9988601298FDF786
:102AD00072FECDE9080102F0CFFE00224E4BCDE997
:102AE0000A01FDF71DFDCDE90E011E9840680B900F
:102AF000FDF761FECDE90C01DDE90E23FDF769FC70
:102B0000CDE91001FDF76AFE01461E98C16000BFC5
:102B100000BF1E98C06806901E98406905900699EF
:102B2000FDF7E1FB0790FDF746FE00224FF08043E2
:102B3000CDE9080101F058FECDE90C011E9880682E
:102B400006901E98006905900699FDF7CCFB07904A
:102B5000FDF731FE00224FF08043CDE9080101F07E
:102B600043FECDE90A01DDE90C23FDF732FCCDE996
:102B70000E0102F0D1FECDE91001FDF72FFE1C90F1
:102B80001E98C06806901E98C06905900699FDF7CA
:102B9000AAFB0790FDF70FFE00224FF08043CDE91E
:102BA000080101F021FECDE90C011E988068069015
:102BB0001E98806905900699FDF795FB0790FDF733
:102BC000FAFD00224FF08043CDE9080101F00CFE30
:102BD000CDE90A01DDE90C23FDF7FBFBCDE90E0190
:102BE00002F09AFECDE91001FDF7F8FD1B900B48AD
:102BF0001B99FDF77EFB0990FDF7DDFD00224FF0EC
:102C00008043CDE90C010BE000007041000020433F
:102C10000080414000C0574000002E4000008C4220
:102C20001046944901F0E0FDCDE908011B98FDF73D
:102C3000C2FD00224FF08043CDE9000101F0D4FD38
:102C400000224FF08043CDE9040110468A4901F08B
:102C5000CBFDCDE90201DDE90423FDF7BAFBCDE9A7
:102C60000601DDE90823FDF755FCCDE90A01DDE9A0
:102C70000C23FDF7C7FCCDE90E0101F00DFBCDE9FA
:102C80001001FDF7ABFD18907C481B99FDF731FB57
:102C90000990FDF790FDCDE90C011C98FDF78BFD27
:102CA00000224FF08043CDE9040101F09DFDCDE904
:102CB00008011B98FDF77FFD00224FF08043CDE90E
:102CC000000101F091FD00224FF08043CDE90401A5
:102CD00010466B4901F088FDCDE90201DDE90423CE
:102CE000FDF777FBCDE90601DDE90823FDF712FCCE
:102CF000CDE90A01DDE90C23FDF784FCCDE90E01E5
:102D000001F0CAFACDE91001FDF768FD17905D48A2
:102D10001C99FDF7EEFA0990FDF74DFD00224FF0EA
:102D20008043CDE90C011046524901F05DFDCDE92B
:102D300008011C98FDF73FFD00224FF08043CDE9CC
:102D4000000101F051FD00224FF08043CDE9040164
:102D50001046494901F048FDCDE90201DDE90423AF
:102D6000FDF737FBCDE90601DDE90823FDF7D2FBCE
:102D7000CDE90A01DDE90C23FDF744FCCDE90E01A4
:102D800001F08AFACDE91001FDF728FD16903B48C5
:102D90001C99FDF7AEFA0990FDF70DFDCDE90C0188
:102DA0001B98FDF708FD00224FF08043CDE9040198
:102DB00001F01AFDCDE908011C98FDF7FCFC00228A
:102DC0004FF08043CDE9000101F00EFD00224FF0ED
:102DD0008043CDE904011046294901F005FDCDE904
:102DE0000201DDE90423FDF7F4FACDE90601DDE98E
:102DF0000823FDF78FFBCDE90A01DDE90C23FDF780
:102E000001FCCDE90E0101F047FACDE91001FDF713
:102E1000E5FC1590DDE91710FDF713FA0B90FDF7AF
:102E2000CAFC194A194BCDE90C01FDF773FB4FF0B1
:102E30000052174BCDE90E01FDF772FBCDE91001F1
:102E4000FDF7CCFC1E990862DDE91510FDF7F9F9D4
:102E500080F000400F491190FDF74BFA01461E9893
:102E600041621E98D0E908121D98FDF735FF1FB08A
:102E700000BD000000005440008041400000F041CF
:102E800000002E4000008C42112D4454FB210940CB
:102E9000DCA54C40E12E654270B505460C46164651
:102EA00015B1022D0DD100E000BF616908683146FF
:102EB000FDF719FA80F00040A061E0690068206227
:102EC00009E0616908683146FDF7BBF9A061E06976
:102ED0000068206200BF00BF20680068606015B114
:102EE000032D11D100E000BF21696068FDF7A9F949
:102EF0006060D4E90101FDF797FC04D8D4E9010131
:102F0000FDF7F1F9606002E06068606000BF00BF3B
:102F100070BD000010B504460548206100216161C4
:102F200004492069FDF78DF9A0616169E16110BD77
:102F30000000F0C00000704100B587B01C220749B6
:102F40006846FDF74BF90021684601F01DFC044975
:102F5000086000F067F907B000BD00006461000878
:102F60000000002000B585B0002001900290039081
:102F7000049000BF2C48806940F010002A49886105
:102F80000846806900F01000009000BF00BF00BF3D
:102F90000846806940F0200088610846806900F09A
:102FA0002000009000BF00BF00BF0846806940F0CD
:102FB000080088610846806900F00800009000BFA2
:102FC00000BF00BF0846806940F0040088610846E1
:102FD000806900F00400009000BF00BF00224FF4A1
:102FE00000511248FEF753FA002203211048FEF761
:102FF0004EFA4FF4005001900120029000200390FF
:103000000220049001A90948FEF7AAF803200190C4
:1030100001200290002003900320049001A904489D
:10302000FEF79EF805B000BD001002400010014000
:10303000000C014000B587B000200390049005907B
:103040000690019002904FF080401449086047209C
:1030500048600021114881604FF47A71C1600021FD
:1030600001618161FEF7C6FE08B1FDF742FF4FF432
:103070008050039003A90948FEF70BFF08B1FDF744
:1030800038FF00200190029001A90448FEF788FE55
:1030900008B1FDF72EFF07B000BD0000F0020020D0
:1030A00010B50B480B4908604FF4E130486000212F
:1030B00008488160C16001610C214161002181618A
:1030C000C161FFF7F3F808B1FDF713FF10BD000071
:1030D000003801403003002000BFFEE7704710B504
:1030E00004460021084600F021F8204602F078FB53
:1030F00010BD70B50446FFF7CBFA8020FFF798FAB1
:10310000FFF70EFB2046FFF793FAFFF709FBFFF7E7
:10311000BFFA8120FFF78CFAFFF702FB0020FFF7D0
:1031200051FA0546FFF7D8FA284670BD70B5054636
:103130000C46FFF7ADFA8020FFF77AFAFFF7F0FAB6
:103140002846FFF775FAFFF7EBFA2046FFF770FA0B
:10315000FFF7E6FAFFF7C0FA70BD70B505460C46FA
:10316000204601F0D7F9064632460021284602F0F3
:1031700019FB70BD08B508490968C9084FF47A728F
:10318000B1FBF2F14143009100BF00BF00994A1E1C
:1031900000920029F9D108BD2800002010B50222B4
:1031A00014A11548FDF73EF808B9012010BD022210
:1031B00012A11148FDF736F808B90220F6E70222FD
:1031C0000FA10D48FDF72EF808B90320EEE7022203
:1031D0000CA10948FDF726F808B90420E6E7022209
:1031E00009A10548FDF71EF808B90020DEE7052013
:1031F000DCE7000030310000100000203032000019
:1032000030330000303400003030000000BF4FF495
:1032100000510348FEF734F9642001F0A4FAF6E700
:103220000010014000B587B01C2206496846FCF733
:10323000D5FF0021684601F0A7FA0349086007B0EE
:1032400000BD0000806100080C00002010B500BF28
:10325000502080F31188BFF34F8FBFF36F8F00BFF3
:1032600002F05AFE18B14FF080500449086000BFC8
:10327000002080F3118800BF10BD000004ED00E0C5
:1032800000B58FB0282105A8FCF7C1FF14216846BE
:10329000FCF7BDFF01200590000406900020079078
:1032A0000120099002200C90C1030D914FF4E01110
:1032B0000E9105A8FEF740FB08B1FDF71AFE0F209E
:1032C000009002200190002002904FF48060039053
:1032D0000020049002216846FEF7D6F908B1FDF7F8
:1032E00008FE0FB000BD00001148006840F001006A
:1032F0000F490860084640680E4908400C4948607C
:10330000084600680C4908400949086008460068FA
:1033100020F4802008600846406820F4FE004860E1
:103320004FF41F008860C80304490860704700001C
:10333000001002400000FFF8FFFFF6FE08ED00E07D
:1033400010B50248FEF72AFE10BD000070030020F1
:1033500010B50248FEF722FE10BD0000F00200206A
:1033600010B50268184B984208D0B0F1804F05D0D4
:10337000164B984202D0164B984203D122F07002AD
:103380004B681A43104B984208D0B0F1804F05D0DB
:103390000E4B984202D00E4B984203D122F4407259
:1033A000CB681A4322F080034C6943EA04020260AE
:1033B0008B68C3620B688362034B984201D10B692F
:1033C00003630123436110BD002C01400004004051
:1033D0000008004030B50C46816821F47F4142EA84
:1033E000032525432943816030BD0A46816821F0C9
:1033F000700142F0070319438160704730B50B46F6
:103400001446026A056A25F001050562816921F00A
:10341000F00141EA041122F00A021A4381610262BA
:1034200030BD30B50B461446056A25F0100505621F
:103430008169026A21F4704141EA043122F0A0025C
:1034400042EA03128161026230BD2DE9F047044671
:103450000D4616461F46206C80F000494FF0804113
:103460004846FCF778FF8046E16CFCF7EAFEE06432
:1034700031462846FCF7E5FE81463946FCF7E1FE79
:1034800080F000484046216DFCF7DBFE2065D4E962
:103490001301C4E90001BDE8F08700002DE9F04FF9
:1034A00099B00446D4F804B0D4F810A0D4F8189019
:1034B000206A18900020169049461698FCF7C1FE25
:1034C000149000201790159051465846FDF7A2F928
:1034D0007DD21698FDF76FF9CDE910015046FDF742
:1034E0006AF9074688465846FDF765F94A4A4B4B44
:1034F000CDE90001FDF714F83A464346CDE9020153
:10350000FDF780F8054602F0B7F9434A434BCDE991
:103510000401FDF777F8CDE9080151465846FCF75C
:103520001AFF0546FDF747F9CDE90601DDE9082355
:10353000FCF7F0FFCDE90C014846FDF73CF9CDE979
:103540000A01DDE90C23FCF7EBFFCDE90E01DDE913
:103550001023FCF73EFFCDE91201FDF73FF9606251
:103560001798FDF728F9CDE910015046FDF723F92A
:10357000074688465846FDF71EF9274A274BCDE9EE
:103580000201FCF7CDFF3A464346CDE90401FDF7C1
:1035900039F8CDE9060100F0DFFF00224FF080434B
:1035A000CDE90801FDF72EF8054600221C4BFCF77B
:1035B000B4FFCDE90C011898FDF7FDF8CDE90A013B
:1035C000DDE90C23FCF7ACFFCDE90E0100E009E0DA
:1035D000DDE91023FCF7FDFECDE91201FDF7FEF851
:1035E000A06215E051465846FCF77DFE80465146E4
:1035F000FCF7B1FE064689F0004731463846FCF735
:1036000078FE05461499FCF71CFE60621799A162CA
:1036100019B0BDE8F08F0000112D4454FB21194072
:103620000000E03F70B504460D461646FDF7B4FABB
:1036300020600648A0604FF07C50E060D4E90201B1
:10364000FCF757FE2061E661656170BD0000C8426D
:1036500070B505466C6A0020E085E0842046FEF7E0
:103660007EFD70BD0168C96821F490710268D16067
:103670000168496921F0010102685161202180F847
:103680003A10704710B504462068C06820F040002A
:103690002168C860202084F839002046FEF743FFE7
:1036A000002010BD70B5044694F83A0022284AD193
:1036B000A068B0F5805F13D1A56A206940B9206881
:1036C0004068C0F308002880A06A801CA06219E04E
:1036D00020684068C0B22880A06A401CA06211E047
:1036E000206938B920684068C1B2A26A501CA06243
:1036F000117007E02068406800F07F01A26A501C4A
:10370000A0621170E08D401E80B2E085C8B92068CB
:10371000C06820F020002168C8602068C06820F4DC
:1037200080702168C8602068406920F0010021682D
:103730004861202084F83A002046FEF775FE0020FC
:1037400070BD0020FCE70220FAE7000070B50446D7
:103750002168096921F44051E2681143226811612E
:103760002269A1681143626941EA02052168C968BA
:1037700041F20C62914329432268D1602168496972
:1037800021F44071A269114322685161564A2168AF
:10379000914254D1FEF776F800EBC00101EB001125
:1037A00062689200B1FBF2F100EBC00202EB001282
:1037B00063689B00B2FBF3F26423B2FBF3F202EB0B
:1037C000C20303EB0212A1EB8201322202EB0111D0
:1037D0006422B1FBF2F101F0F00100EBC00202EB58
:1037E000001263689B00B2FBF3F26423B2FBF3F2B6
:1037F00001EB021200EBC00101EB001163689B00BA
:10380000B1FBF3F100EBC00303EB00136668B600F5
:10381000B3FBF6F36426B3FBF6F303EBC30606EB48
:103820000313A1EB8301322303EB01116423B1FBEA
:10383000F3F101F00F0111442268916053E0FEF7AB
:1038400011F800EBC00101EB001162689200B1FBBE
:10385000F2F100EBC00202EB001263689B00B2FBC6
:10386000F3F26423B2FBF3F202EBC20303EB0212A6
:10387000A1EB8201322202EB01116422B1FBF2F1D1
:1038800001F0F00100EBC00202EB001263689B0044
:10389000B2FBF3F26423B2FBF3F201EB021200EB92
:1038A000C00101EB001163689B00B1FBF3F100EB79
:1038B000C00303EB00136668B600B3FBF6F364269F
:1038C000B3FBF6F303EBC30606EB0313A1EB830193
:1038D000322303EB01116423B1FBF3F101F00F017B
:1038E00011442268916070BD00380140014691F892
:1038F000390021282CD18868B0F5805F0FD10A6A81
:103900001088C0F308000B685860086918B9086A85
:10391000801C086209E0086A401C086205E00B6A26
:10392000581C086218780B685860C88C401E80B21A
:10393000C88458B90868C06820F080000B68D86057
:103940000868C06840F040000B68D86000207047ED
:103950000220FCE72DE9F04104460D461746984643
:10396000069E21E0701CF8B12EB1FDF797FDA0EB8B
:103970000800B04218D92068C06820F4D0702168CF
:10398000C8602068406920F001002168486120205B
:1039900084F8390084F83A0000BF002084F8380029
:1039A00000BF0320BDE8F081206800682840A842DD
:1039B00001D1012000E00020B842D3D00020F1E77F
:1039C00010B50248FEF7CCFB10BD0000300300200C
:1039D00000BFFEE70FB4054B10B503A9044A0298D7
:1039E00000F07EFB10BC5DF814FB0000D14600081F
:1039F0008C000020490050EAC12018BF04204A0D65
:103A000018BF40F0010040F2FF72B2EB515F08BFF7
:103A100040F00200012808BF0520704702480068F6
:103A2000C0F30220704700000CED00E010B5002844
:103A300004DB0A07130E054A135406E00A07140EA6
:103A4000034A00F00F031B1FD45410BD00E400E034
:103A500018ED00E02DE9F74F144694B00021C4E9B9
:103A600002111599079121F00045C9498D4206DCE4
:103A70001599C4E9000117B00020BDE8F08FC549D1
:103A8000DFF814A3A9423CDD0799C44E0029C44FB6
:103A9000C44A1599534619DDFCF73CFD554506D03F
:103AA000C14AC24BFCF736FDC4E900010AE04FF001
:103AB000D352BE4BFCF72EFD32463B46FCF72AFDA7
:103AC000C4E9000117B00120BDE8F08FFCF781FCCC
:103AD000554506D0B44AB54BFCF77BFCC4E9000160
:103AE0000AE04FF0D352B14BFCF773FC32463B4631
:103AF000FCF76FFCC4E9000117B04FF0FF30BDE8E0
:103B0000F08FAB49A942159978DB21F0004183463B
:103B10008846A84AA84BFCF703FD0022A74BFCF7F8
:103B200058FCFCF710FE0990FCF7DBFD06460F463B
:103B30009C4A5346FCF7F4FC43465A46FCF7EDFC1E
:103B400080468A46984A994B30463946FCF7E8FC4D
:103B50002A0D01250B9242465346FCF7DEFC032D4D
:103B6000C4E9000139D00B98C1F30A51401A05EBA2
:103B700045111139814230DA9148C346784400EB4F
:103B80000510CDF80CA00C90D0E900233046394642
:103B9000FCF7C6FC02460B46049106905846039972
:103BA000FCF7B8FC80468A4602460B465846039905
:103BB000FCF7B0FC049B069AFCF7ACFC83460C981F
:103BC00003913946D0E902233046FCF7A9FC5A4656
:103BD000039BFCF79FFC6D1CBDE707980028A2BF64
:103BE000099817B0BDE8F08F616881F0004161600D
:103BF000099817B04042BDE8F08FFFE7844615985A
:103C0000C1F31301C0F30A50A0F2F5304FEA601877
:103C100000F01F06C6F120001390002006900790C8
:103C200041F4801E05206D4676B1664A08EB00011E
:103C30007A4452F8213002EB8101B3404A6813996B
:103C400022FA01F1194305E05F4908EB00027944CB
:103C500051F82210A1FB0E27A1FB0C131A449A4223
:103C600034BF0123002303EB070A05EB8003D3E9EC
:103C700001B70F448F4234BF0121002193448B448C
:103C800011B1934502D903E0934501D2012100E02F
:103C90000021C3E901B7514445F82010011EA0F1ED
:103CA0000100C1DC0298059F00F10050800F1290C6
:103CB0000298DDE903568000FCF713FD8346284691
:103CC0000D91FCF71FFD6FF01D02FCF782FECDE9A0
:103CD0000E013046FCF716FD6FF03D02FCF779FE51
:103CE00080468A463846FCF70DFD6FF05D02FCF712
:103CF00070FE0746424653461191FCF76AFBDDE928
:103D00000E23FCF766FB5A460D9BFCF762FB002571
:103D10000E465A4628460D9BFCF7FCFBDDE90E23B8
:103D2000FCF7F8FB42465346FCF7F4FB3A46119B7E
:103D3000FCF7F3FBDFF898A0244A5346FCF7F0FBAE
:103D400007468846234A244B31462846FCF7E8FBC1
:103D50003A464346FCF73DFB074688464FF0A842EB
:103D6000534631462846FCF7DBFB3A464346FCF710
:103D700030FB159A12F0004F04D0129A81F00041E6
:103D800052421292C4E90001129817B0BDE8F08FB8
:103D9000FB21E93F7CD90240FB21F93F7370032EE0
:103DA0008A19A33B000040543163621A61B4D03DCC
:103DB000FB21394183C8C96D305FE43F0000E03F1B
:103DC00048270000C4260000A6260000182D4454F1
:103DD000FB21F93D3326A611460B113C2DE9FF4D81
:103DE00021F0004807460C46B8F1795F08DAFCF785
:103DF000AAFC002801BF0020324904B0BDE8F08DC4
:103E00003A46234610461946FCF78AFB0546024609
:103E10002D480E460B460621784400F05DF82A46F0
:103E20003346FCF77DFBDDE9022382468B463846AC
:103E30002146FCF775FB04460F4652465B46284672
:103E40003146FCF76DFB22463B46FCF763FB074619
:103E50008A464FF0FF3228463146FCF7BAFD1B4A2E
:103E600090450ADA3A465346FCF754FB04B0002268
:103E7000BDE8F04D134BFCF750BB154A4245A8BFB7
:103E8000A8F500154FF00004B8BF124D22462B468E
:103E9000FCF740FB0646884622462B46002009498F
:103EA000FCF738FB04460D463A4653463046414639
:103EB000FCF730FB04B022462B46BDE8F04DFCF782
:103EC0002CBB00000000F03F742400003333D33FCC
:103ED0000000E93F0000D23F2DE9F0414F1E00EB0A
:103EE000C7010446D1E9000115461E4637F0060217
:103EF0000DD02A463346FCF713FB7F1E04EBC703A5
:103F0000D3E90023FCF765FA37F00602F1D1022F5E
:103F100025D0042F13D0062F18BFBDE8F0812A4604
:103F20003346FCF7FDFAD4E90A23FCF752FA2A4695
:103F30003346FCF7F5FAD4E90823FCF74AFA2A4697
:103F40003346FCF7EDFAD4E90623FCF742FA2A4699
:103F50003346FCF7E5FAD4E90423FCF73AFA2A469B
:103F60003346FCF7DDFAD4E90223FCF732FA2A469D
:103F70003346FCF7D5FAD4E90023BDE8F041FCF75D
:103F800028BA00002DE9FF4D054621F0004084B01D
:103F90000C46B0F1795F0BDA2846FFF72BFD0428B9
:103FA00008BF00F07FF8284608B02146BDE8F08D34
:103FB0002A460B461046FCF7B3FA06460F462A4639
:103FC0002346FCF7ADFA804626488A4632463B46F1
:103FD00005217844FFF780FF83461098029160B373
:103FE000214A224B40465146FCF79AFACDE900019E
:103FF0005A4640465146029BFCF792FA8246884652
:10400000DDE906014FF0FF32FCF7E3FC5246434680
:10401000FCF780FA32463B46FCF782FADDE90623DC
:10402000FCF778FADDE90023FCF774FA08B02A46B9
:104030002346BDE8F04DFCF770BA0B465A463046B1
:104040003946FCF76DFA084A084BFCF7C2F94246BC
:104050005346FCF765FA08B02A462346BDE8F04D02
:10406000FCF7B7B9BA230000495555555555C5BF9A
:104070000022134610460149FCF7C4BA0000F03F85
:104080000122FCF7A6BCFCF7A4B900221346104697
:104090001146FCF7B7BA40F2013200204FF0E04180
:1040A000FCF797BC024A00201107FCF792BC000005
:1040B00001FDFFFF02E008C8121F08C1002AFAD163
:1040C00070477047002001E001C1121F002AFBD198
:1040D0007047000001490860704700009000002010
:1040E0002DE9FF4F8BB09A460F460546002606E0A5
:1040F00025280BD052460D9990476D1C761C2878C8
:104100000028F5D10FB03046BDE8F08F0024A0465E
:104110000122604900E0044315F8013F203B02FA08
:1041200003F00842F7D128782E2817D115F8010F8F
:1041300044F004042A280ED06FF02F022878A0F152
:10414000300109290AD808EB880102EB410100EB94
:1041500001086D1CF2E757F8048B6D1C287869285C
:104160003ED006DC0028CDD063280BD0642804D1D3
:1041700036E0732810D075284BD052460D999047E1
:10418000761C85E017F8040B8DF8000000208DF8F0
:104190000100E946012003E057F8049B4FF0FF308F
:1041A00061074FF0000401D40AE0641C44450DDAB5
:1041B0008442FADB19F804100029F6D106E0641CE9
:1041C0008442FCDB19F804100029F8D1264404E0ED
:1041D00019F8010B52460D999047641EF8D257E02A
:1041E00001CF4FF00A0B002802DA40422D2102E0F5
:1041F000210504D52B218DF82410012103E0E107CE
:1042000005D02021F7E70DF1200908910CE00021ED
:10421000F9E701CF4FF00A0BF9E75946FCF70EFB1F
:1042200001F1300209F8012D0028F6D1ADEB0900AB
:1042300000F1200B600701D44FF00108D84502DDE2
:10424000A8EB0B0000E000208046002406E009A84F
:104250005246005D0D999047641C761C0898844274
:10426000F5DB04E0302052460D999047761CB8F1FA
:104270000001A8F10108F5DC05E019F8010B524630
:104280000D999047761CBBF10001ABF1010BF4DCFA
:104290006D1C34E7092801002DE9F04D0546DFF8D3
:1042A000388221F000408D4F82B00C46404520DB23
:1042B000A0EB080129430BD08949884201DC10D1C9
:1042C0007DB102B028462146BDE8F04DFFF7D8BECB
:1042D000002CC7BF002001468248394602B0BDE825
:1042E000F08D0120FFF7F6FE02B0BDE8F04DFFF7BC
:1042F000CCBE7D49884244DA7C498142A1BF7948DD
:104300007B4902B0BDE8F08D2A4623461046194687
:10431000FCF706F98346024676480E460B46062110
:104320007844FFF7D9FD5A463346FCF7F9F80746BB
:1043300071488A465A46334604217844FFF7CCFD3B
:104340005A463346FCF7ECF800224346FCF741F8A6
:1043500002460B4638465146FCF754F92A46234696
:10436000FCF7DEF8654A664BFCF7D7F82A46234689
:10437000FCF7D3F802B05B4ABDE8F04D5C4BFCF7AC
:10438000CCB8002C4FF000024BDA46464346284694
:104390002146FCF71EF84FF0FF32FCF71AFB0446EB
:1043A000024658480D460B4606217844FFF794FD17
:1043B00022462B46FCF7B4F8804653488A462246EC
:1043C0002B4604217844FFF787FD22462B46FCF755
:1043D000A7F800223346FBF7FCFF06468B46204633
:1043E000294601F099FA04460D4632465B4640469E
:1043F0005146FCF707F922462B46FCF791F83F4A55
:104400003F4BFCF787F822462B46FBF7E2FF0122E1
:10441000FCF7DFFA02B03B46BDE8F04D314AFCF74D
:104420007CB82D4B28462146FCF777F84FF0FF3239
:10443000FCF7CFFA05460E4601F06EFA00270C464F
:1044400080463A460B46FBF7C4FF82468B463A4607
:10445000234610461946FCF763F82A463346FCF714
:104460005CF852465B46FCF7CDF8824627488B46FF
:104470002A46334606217844FFF72EFD2A46334666
:10448000FCF74EF8CDE9000121482A4633460421C5
:104490007844FFF721FD2A463346FCF741F8002215
:1044A0000D4BFBF796FF02460B46DDE90001FCF7DA
:1044B000A9F842462346FCF733F852465B46FBF721
:1044C00088FF3A462346FBF784FF02B00122BDE88D
:1044D000F04DFCF77EBA00000000F03FFB210940E0
:1044E0000000F07F182D44540000E03F0000603CC5
:1044F000FB21F93F941E0000AA1E0000075C143344
:1045000026A6913C0A1E0000201E00003E1D000051
:10451000541D00002DE9F14F0098FCF7F3F8804698
:104520000022094BFCF76EF806460022074BFBF70A
:1045300050FF0446064A074BFBF7F2FF8246FCF7A2
:1045400002F980B2BDE8F88F008056400000E03FDD
:104550009A9999999999694000B5244B21F00042A4
:1045600087B09A42DCBF0022134629DD204B9A42D5
:1045700008D140B94FF00100FFF7ACFDFFF785FD12
:1045800007B000BD03DBFFF77BFD07B000BD02AA4B
:10459000FFF760FA10F0030104BF0DF1080C9CE86E
:1045A0000F000DD0012001290ED0022914D00DF1E9
:1045B000080C00909CE80F00FFF7E4FC07B000BD7A
:1045C000FFF70CFC07B000BD0DF1080C00909CE853
:1045D0000F00FFF7D7FC05E00DF1080C9CE80F0079
:1045E000FFF7FCFB07B081F0004100BDFB21E93F74
:1045F0000000F07F2DE9F041C1F30A52A2F2FF362C
:104600002F4A304B0D460446142E2FDA002E12DAB4
:10461000FBF7DFFE00221346FCF744FA4CD2002DD4
:10462000A4BF0024254647DA25F00040204318BFE8
:10463000254D41D018E0DFF894C02CFA06F705EAC2
:10464000070C5CEA040C08BFBDE8F081FBF7C1FE73
:1046500000221346FCF726FA2ED2002D03DA4FF47F
:104660008010F0400544BD43002425E0332EC8BF30
:10467000BDE8F081A6F1140C4FF0FF3727FA0CF7D4
:104680003C4208BFBDE8F081FBF747FF002213461C
:10469000FCF708FA10D2002D0DDA142E08BF6D1C9D
:1046A00009D0C6F13400012101FA00F02044A042F3
:1046B00038BF6D1C0446BC4329462046BDE8F08146
:1046C0009C7500883CE4377E0000F0BFFFFF0F00C0
:1046D00013B50C464FF6FF73012269460248FDF7F9
:1046E000B7FE00981CBD000030030020002001E050
:1046F000411CC8B20A28FBDB70470000FCF7E0FE53
:10470000FEF7BEFDFEF72EFCFEF794FCFEF7C8FC9C
:1047100009A0FFF75FF93220FEF7E1FC0B48FDF737
:10472000A3FB01220A490B48FDF746FEFEF704FCF5
:1047300000F025F800BFFEE7E4B8B2E58FA3E4BCC3
:10474000A0E8BE9353544152540D0A00F0020020D9
:10475000180000203003002001460020842901D0E9
:10476000CA1C1044704770B5044625460DB1294651
:1047700000E00121084601F0F1F9002070BD10B5FC
:1047800001F01AFA002010BD7FB504460D4660699D
:1047900098B1A06988B1B4F90800FFF7DDFF0646BB
:1047A000D4E90510CDE9006102902B462269D4E9D5
:1047B000001001F055FB039013E0B4F90800FFF777
:1047C000CBFF064603A8CDE90060238A9AB22B46A8
:1047D000D4E9001001F012FB012802D0002004B03F
:1047E00070BD0398FBE700002DE9F04D1D460C4617
:1047F00098B0174621F0004123F00043002814BF71
:104800004FF0010C4FF0000C0CEB440CFE4A0CEB8B
:1048100002064FEA620C66452BD33E0018BF012604
:1048200006EB45061644F94A964222D3F84A53EA63
:10483000070C02D0944205D148B918B000201146A7
:10484000BDE8F08D002808BF4FF0000C01D04FF0FC
:10485000010C0CEB440212F5001F0AD8002F14BF04
:104860004FF0010C4FF0000C0CEB450212F5001F4D
:1048700007D918B03A462B462146BDE8F04DFFF760
:1048800002BC0022DFF88CA3002CB8BF534526DA07
:10489000DFF884C36345A8BF022220DADFF870C3C3
:1048A0009C451CDCDFF874C30CEB235CBCF1140FDB
:1048B00008DDCCF1340627FA06FC0CFA06F6BE42F7
:1048C0000DD108E05FB9CCF1140623FA06FC0CFA0E
:1048D00006F69E4203D10CF00102C2F1020251EA37
:1048E000000C19D1002D17DA002C18BF022A01D0B4
:1048F000012A07D00220FFF7EDFB18B0BDE8F04D0C
:10490000FFF7B6BB0220FFF7E5FBFFF7B1FB18B0DE
:1049100081F00041BDE8F08DB7F1000C6CD153453A
:1049200025D104F1804212F5801201BF0028002039
:10493000B74918B008BFBDE8F08DB548884207DC1C
:10494000002DA1BF6046294618B0BDE8F08D07E0F4
:10495000281E05DA80F0004118B06046BDE8F08DF1
:10496000AF497944D1E9000118B0BDE8F08DDFF816
:10497000A0C2634525D1002D1FDA19B1514512D1CE
:10498000D8B909E0002840F0EC82A24A214618B0CC
:1049900062F31E01BDE8F08D0020214618B060F3DF
:1049A0001E01BDE8F08D08DA18B02346BDE8F04DD1
:1049B000024600206146FBF725BE18B02146BDE83F
:1049C000F08D514518DAB5F1804F0DD0A5F1005C9E
:1049D000BCF1FF5C10D1B4F1000C0DDB18B06146E6
:1049E000BDE8F04D00F098BF234618B00246BDE880
:1049F000F04D1946FBF794BD060024F0004C3BD166
:104A0000D9B1514533D1002C06DD002DA1BF0020C6
:104A1000514618B0BDE8F08D002C01DD002D1BDBE8
:104A2000002C13DA002D11DB012A4FF0000014BF17
:104A300078497C4918B0BDE8F08D022A18BF002CD7
:104A40000AD0012A08D1002C06DA0AE0002CB8BFEF
:104A5000002D11DA012A04D0002018B00146BDE86B
:104A6000F08D18B000204FF00041BDE8F08DA1F1AD
:104A70004050B0F17F601AD0012000EBE47050EAA2
:104A8000020421D0624C521E4FF0000B104304BFB1
:104A90004FF0000B644C654883427CDD644A6548F6
:104AA00093421FDD884217DB002D25DB37E0002C09
:104AB00000DA4AB1022A0CBF01204FF0FF3018B0D3
:104AC000BDE8F04DFBF70DBE0120FFF703FB18B06A
:104AD000BDE8F04DFFF7D9BA4D4A8A4202DC002DFD
:104AE0000ADC1CE0814202DA002D18DA04E0484BAF
:104AF000994220DD002D12DD0220FFF7EBFAFFF7CF
:104B0000CAFA05460E460022534658462146FBF790
:104B100007FD18B066F31E012846BDE8F08D02209F
:104B2000FFF7D8FAFFF7BEFA0A46214618B062F33B
:104B30001E01BDE8F08D002230466146FBF7EAFC1D
:104B400080460E466FF00102FBF743FF4FF05532EF
:104B5000394BFBF7E2FC42463346FBF7E1FC00220F
:104B6000364BFBF7DAFC8246424633460491104648
:104B70001946FBF7D5FC5246049BFBF7D1FC8A464D
:104B800000904FF0C0422E4B40463146FBF7C8FC28
:104B90002C4A2B4B00E027E0CDE906015146009856
:104BA000FBF7BEFC82460191274A284B404631461E
:104BB000FBF7B6FC5246019BFBF7ACFC82460B466A
:104BC00002460591DDE90601FBF703FCDDE906235A
:104BD000002688463046FBF79DFC5246059BFBF7B6
:104BE0009CFC024600F07EB90020B1F5801F07DA78
:104BF000352230466146FBF7ECFE06466FF0340086
:104C000000EB215024E00000FFFF1F00FFFF0F001A
:104C10000000F03F0000F07F0000404301FCFFFF78
:104C20005A1900000000F0FF0000F0BF0000E04152
:104C30000000F043FFFFEF3F5555D53F0000E03F38
:104C40004715F73FFE822B6544DF5DF80BAE543EFF
:104C5000A0F2FF300190C1F3130040F07F6141F0FA
:104C600040510291FE498842D8BF002004DDFD4931
:104C70008142C8BF012001DD0D9008E000200D90A9
:104C80000198401C01900298A0F5801002900299B2
:104C9000F54878440B910D9900EBC100D0E9002351
:104CA0000F9330460A920B99FBF734FCCDE90601CD
:104CB000DDE90A2130460F9BFBF78BFB02460B46D2
:104CC0000020EA49FBF79EFC059102460B46009046
:104CD000DDE90601FBF724FC1490E5488A464FF015
:104CE000000878440299006812904FF0005040EAA2
:104CF00061010D980F9B01EB804000F500210991A7
:104D00000A9A1298FBF706FC32460B9BFBF705FC50
:104D100042465346FBF704FC064602914046514684
:104D2000099B129AFBF7FCFBDDE90623FBF7F5FB79
:104D30003246029BFBF7EEFB059B009AFBF7F0FB6C
:104D40000091149A0490534610461946FBF7E8FB6D
:104D500006460246C7480B46029106217844FFF7F3
:104D6000BBF8CDE90510029B324610461946FBF709
:104D7000D7FBDDE90532FBF7D3FB05910646534629
:104D800040461946149AFBF724FB009B049AFBF754
:104D9000C7FB3246059BFBF71CFBCDE905104246DD
:104DA000534610461946FBF7BBFB0022B24B02915B
:104DB0000A90FBF70EFBDDE90532FBF70AFB0E4616
:104DC0004246AD4B4046FBF7A5FB029B0A9AFBF718
:104DD000A1FBDDE90532FBF7A0FB424602910A90F8
:104DE000334610465146FBF79BFBCDE9060153467F
:104DF000149A02990A98FBF793FB8A46029033466D
:104E0000424600990498FBF78BFB5346029AFBF746
:104E1000E0FA82460B4602460591DDE90601FBF702
:104E2000D8FADDE90623002088460646FBF772FB28
:104E30005246059BFBF771FB824609914FF0604299
:104E40008E4B30464146FBF76BFB049006918C4A33
:104E50008A4B50460999FBF763FB82460291894AC7
:104E6000894B30464146FBF75BFB5246029BFBF702
:104E7000B0FA864B7B440D9A03EBC203D3E90023BF
:104E8000FBF7A7FA0E9007910198FBF72AFC059112
:104E9000DDE9061382460E9A0498FBF79AFA7C4ADB
:104EA0007A440D9B02EBC303D3E9002300930292E3
:104EB000FBF78FFA5246059BFBF78BFA00268846D4
:104EC00052463046059BFBF725FB009B029AFBF7F9
:104ED00021FB069B049AFBF71DFB079B0E9AFBF731
:104EE0001CFB024600200B46029038462946FBF781
:104EF00017FB824601912B4638461946029AFBF76A
:104F000009FB32464346FBF70BFB5246019BFBF77E
:104F100060FA07468A463246434629460298FBF71E
:104F2000FFFA05460E463A465346FBF752FA594AEF
:104F30008846914221DBA8EB020353EA000210D11C
:104F40002A463346FBF7E6FACDE90401524A534BB1
:104F500038465146FBF73DFADDE90423FBF7A2FD95
:104F600021D20220FFF7B6F8FFF795F80A4621464E
:104F700018B062F31E01BDE8F08D494B28F00042E5
:104F80009A4210D3474A08EB020353EA00027FF427
:104F9000C6AD2A463346FBF7BDFA3A465346FBF701
:104FA00081FD7FF6BCAD0022019228F000403E4911
:104FB0003E4A01EB2051824223DA481C4FF4801113
:104FC00021FA00F040443A4AC0F30A517A44394B7E
:104FD000A1F2FF31CB4020EA0303C0F3130040F4F9
:104FE0008010C1F11401C84012680190B8F1000F9F
:104FF000BCBF4042019028463146FBF78BFA05467C
:105000000E462A46334638465146FBF7E2F94FF042
:1050100000084246284B40460591FBF781FACDE94E
:105020000601264A264B40460599FBF779FA00917E
:1050300002902A46334640460599FBF76BFA3A46FA
:105040005346FBF76AFA1F4A1F4BFBF769FA009BAE
:10505000029AFBF7BEF90746884602460B4635E042
:105060008E9803007AB60B00721500000000F03F26
:10507000DA150000D81400000000084009C7EE3F10
:10508000FD033ADCF5015B14E02F3EBEB0130000D7
:105090007413000000009040FE822B654715973C7A
:1050A00000CC904000346F3F01FCFFFF0000E03F68
:1050B000F0120000FFFF0F00432EE63F396CA80CF2
:1050C000615C20BEEF39FAFE422EE63FDDE90601C3
:1050D000FBF77FF9DDE9062305460E46FBF71AFAD2
:1050E0003A464346FBF719FA0F462A4633460090E4
:1050F00010461946FBF714FA824602462E488846A7
:105100000B4605217844FEF7E7FE52464346FBF77F
:1051100007FA2A463346FBF700FA80468A463B46A2
:1051200028463146009AFBF7FBF93B46009AFBF70D
:1051300050F90691009000224FF0804340465146BE
:10514000FBF7E8F90F460C90424653462846314695
:10515000FBF7E6F93B460C9AFBF754FA069B009ADC
:10516000FBF7D8F92A463346FBF7D4F90022134B54
:10517000FBF7D3F9054601980E4601EB00510815DF
:10518000002810DC28463146019AFBF722FCFEF786
:1051900031FC042808BFFEF785FF28463146019AF6
:1051A000FBF717FC05460B4618B02A465846214621
:1051B000BDE8F04DFBF7B4B9601100000000F03F0E
:1051C0002DE9F04105460E461C4807681C4800685A
:1051D000001D00F0C7FB50B91948006890F82C106A
:1051E0000120884017490968814316480160681CFE
:1051F00038B936B112480168091D134800F0FCFBAC
:105200001AE07C190E4800684460BC4207D20C4882
:105210000168091D0D48006800F0D4FB0CE0084847
:105220000168091D0A48006800F0CCFB09480068C5
:10523000844201D207480460BDE8F08140000020AC
:105240002C000020440000201C0600203400002018
:10525000300000205C00002010B5044600F0D8FBB0
:1052600024480068401C234908602348006840B96E
:10527000214804600846006801280DD100F040F97B
:105280000AE01E48006838B91B480068C06AE16A35
:10529000884201D81848046019480068401C184921
:1052A000086008460068606494F82C10012088406B
:1052B00014490968084313490860E16A01EB810158
:1052C000114A02EB8100211D00F096FB00F0CAFBA1
:1052D0000A48006868B108480068C06AE16A884204
:1052E00007D24FF0805009490860BFF34F8FBFF3DA
:1052F0006F8F10BD3C0000202C00002048000020D3
:1053000058000020440000204005002004ED00E08B
:1053100010B516E000F07CFB0C48C068C468201D86
:1053200000F020FB0A480068401E0949086009484F
:105330000068401E0749086000F094FB204600F01A
:105340000BF8044800680028E4D110BD08060020CE
:105350003C0000203800002010B5044694F85900A5
:1053600030B9206B00F09CFB204600F099FB1AE05E
:1053700094F85900012803D1204600F091FB12E077
:1053800094F85900022801D1012000E0002050B912
:1053900000BF502080F31188BFF34F8FBFF36F8F92
:1053A00000BF00BFFEE710BD30B54FF440631748A3
:1053B00000F007042CB1C01D20F00700134C041BA3
:1053C0001B1B0246124C22600024114D6C60D01849
:1053D000083820F007000F4C206000240D4D2D6888
:1053E0006C600C4D2D682C601146441A4C60094CC1
:1053F00024680C60084D4C682C60084D4C682C608B
:105400004FF00044064D2C6030BD000030060020F7
:105410006800002070000020780000207400002048
:105420007C00002000BFFFF773FF064800680128DA
:10543000F9D94FF0805004490860BFF34F8FBFF394
:105440006F8FF0E74005002004ED00E02DE9F05FEC
:1054500082460F4690469B460A9E0C9C4FEA880166
:10546000A522206BFAF7CCFEA8F10100216B01EB1D
:10547000800929F0070909F0070008B9012000E0B8
:10548000002050B900BF502080F31188BFF34F8F28
:10549000BFF36F8F00BF00BFFEE7002507E0795D17
:1054A00004F134004155785D00B902E06D1C102D07
:1054B000F5D300BF002143200155072E00D3062657
:1054C000E662E66400202065201D00F078FA04F111
:1054D000180000F074FA2461C6F10700A06164624C
:1054E0000020606584F858005A465146484600F04E
:1054F00047F920600B9808B10B980460BDE8F09F55
:1055000010B5002407E004EB84010F4A02EB810090
:1055100000F048FA641C072CF5D30C4800F042FA5E
:105520000B4800F03FFA0B4800F03CFA0A4800F044
:1055300039FA0A4800F036FA044809490860044874
:105540000849086010BD000040050020CC0500207F
:10555000E0050020F4050020080600201C060020BD
:10556000300000203400002010B50146164800E04D
:10557000006803688B42FBD30246436813448B42A6
:1055800004D143684C682344436001460A464B6893
:1055900013440468A34211D10C4C03682468A3424D
:1055A00008D04B680468646823444B6003681B6838
:1055B0000B6005E0054B1B680B6001E003680B60A6
:1055C000884200D0016010BD6800002070000020FB
:1055D0000A490968096809B9012100E0002121B1DF
:1055E0004FF0FF31064A116006E004490968C968B6
:1055F000C868034A4168116070470000300000200D
:105600005C0000200E480068401C08B9012000E042
:10561000002050B900BF502080F31188BFF34F8F96
:10562000BFF36F8F00BF00BFFEE700BF502080F3C5
:105630001188BFF34F8FBFF36F8F00BF00BFFEE72E
:10564000800000202DE9F04104464FF0000800F0F2
:105650000BFB4648006808B9FFF7A6FE44480068FF
:10566000204000286BD1D4B1083404F00700B0B159
:1056700004F00700C0F10800044404F0070008B972
:10568000012000E0002050B900BF502080F31188B5
:10569000BFF34F8FBFF36F8F00BF00BFFEE7002C3B
:1056A0004DD034480068844249D8334E30460568AE
:1056B00001E02E462D686868A04202D228680028C2
:1056C000F7D12A480068854239D0306800F10808CF
:1056D000286830606868001B102819D92F1907F056
:1056E000070008B9012000E0002050B900BF502099
:1056F00080F31188BFF34F8FBFF36F8F00BF00BFE0
:10570000FEE76868001B78606C603846FFF72CFF86
:10571000184968680968081A164908600846006848
:1057200016490968884203D2124800681349086084
:105730000F4968680968084368600020286000F025
:105740008FFC08F0070008B9012000E0002050B9E4
:1057500000BF502080F31188BFF34F8FBFF36F8FCE
:1057600000BF00BFFEE74046BDE8F08170000020AA
:105770007C000020740000206800002078000020D9
:10578000001F4FF080730360001F21F001030360CE
:10579000001F034B0360143802602038704700007C
:1057A0000556000870B504460D461646E9B2A2003B
:1057B000921DD0B2FDF7BAFC2912A200D21DD0B2C0
:1057C000FDF7B4FCF1B2A2000832D0B2FDF7AEFC96
:1057D0003112A2000932D0B2FDF7A8FC70BD000062
:1057E0002DE9FC5F81464FEA0930FAF77AFF074658
:1057F0001D4A1E4BFAF794FE05462A460B4600202A
:105800001B49FAF7FFFE82468B460022194B504691
:105810005946FAF7DEFD0546FEF7ECFE0746FAF7B5
:10582000B1FF401EC0B201900020FDF762FC0446AB
:1058300004F07F0040F01000009000200099FDF778
:1058400075FCFE200199FDF771FC21460020FDF753
:105850006DFC0520FBF770FC44F0A1010020FDF772
:1058600065FCBDE8FC9F000048E17A14AE47ED3FBF
:1058700084D777410000E03F00B5254B21F000427E
:1058800087B09A4203DC0022134600922BE0214BA2
:105890009A4208D140B94FF00100FEF71BFCFEF719
:1058A000F4FB07B000BD03DBFEF7EAFB07B000BD69
:1058B00002AAFEF7CFF810F003014FF001000DD05F
:1058C000012914D002291AD00DF1080C9CE80F0010
:1058D000FEF784FA07B081F0004100BD0DF1080C1D
:1058E00000909CE80F00FEF74DFB07B000BD0DF1E6
:1058F000080C9CE80F00FEF771FA07B000BD0DF12F
:10590000080C00909CE80F00FEF73CFBE2E700006B
:10591000FB21E93F0000F07F2DE9F04106460F46EC
:10592000FBF76EF8041E0D4618BF0120284320F037
:105930000040C0F17F6000F1E040C00F0ED0301C8D
:1059400018BF0120384320F00040C0F17F6000F113
:10595000E040C00F04BF0120FEF7BCFB20462946F3
:10596000BDE8F08101460A69D1E901309860D1E9CA
:10597000010358605068884201D188685060002057
:1059800008611068401E106010687047034B036088
:10599000034B0B60802313607047000094000020CD
:1059A000F000002000F1080141604FF0FF318160FC
:1059B00000F10801C1600161002101607047002110
:1059C0000161704710B502460B685C1C0CB9106988
:1059D00007E002F1080000E04068446824689C4247
:1059E000FAD944684C6088604C68A16041600A61E3
:1059F0001468641C146010BD42684A6093688B6030
:105A0000936859609160086103685B1C036070478C
:105A100000BF502080F31188BFF34F8FBFF36F8F0B
:105A200000BF0E480068401C0C490860084600682A
:105A3000012812D10A480068C0B208B9012000E06C
:105A4000002050B900BF502080F31188BFF34F8F62
:105A5000BFF36F8F00BF00BFFEE7704780000020DC
:105A600004ED00E00D48006850B900BF502080F3FD
:105A70001188BFF34F8FBFF36F8F00BF00BFFEE7EA
:105A800006480068401E054908600846006820B9BD
:105A9000002080F3118800BF00BF70478000002005
:105AA00070B506463546002E3FD0083D2C461F49AE
:105AB00060680968084008B1012000E0002050B982
:105AC00000BF502080F31188BFF34F8FBFF36F8F5B
:105AD00000BF00BFFEE7206808B9012000E00020F9
